S32B0000453A5C50524F4752414D4D494E475C4650542041434144454D595C4D43555C434F44455C426C696EC3
S113000000180020D5000000430100004501000055
S113001000000000000000000000000000000000DC
S11300200000000000000000000000004701000084
S11300300000000000000000490100004B01000026
S11300404F010000570100005F010000670100003C
S11300506F010000770100007F01000087010000AC
S11300608F010000970100009F010000A70100001C
S1130070AF010000B7010000BF010000C70100008C
S1130080CF010000D7010000DF010000E7010000FC
S1130090EF010000F7010000FF010000070200006B
S11300A00F020000170200001F02000027020000D8
S11300B02F020000370200003F0200004702000048
S11300C0C80A000080F8FF1F0000000080F8FF1F2E
S11300D0B800000072B600F011FA0E4B07E0186881
S11300E059681C000C349A6800F01AF823000A4A74
S11300F09342F4D306E018681C000834596800F0F1
S113010018F82300054A9342F5D362B600F085FC43
S1130110FEE7C046C0000000CC000000D400000090
S113012010B5002302E010C810C104339342FAD37F
S113013010BD002302E0002204C004338B42FAD332
S11301407047FEE7FEE7FEE7FEE7FEE7FEE710B5D1
S1130150FFF7FCFF10BD10B5FFF7F8FF10BD10B599
S1130160FFF7F4FF10BD10B5FFF7F0FF10BD10B599
S1130170FFF7ECFF10BD10B5FFF7E8FF10BD10B599
S1130180FFF7E4FF10BD10B5FFF7E0FF10BD10B599
S1130190FFF7DCFF10BD10B5FFF7D8FF10BD10B599
S11301A0FFF7D4FF10BD10B5FFF7D0FF10BD10B599
S11301B0FFF7CCFF10BD10B5FFF7C8FF10BD10B599
S11301C0FFF7C4FF10BD10B5FFF7C0FF10BD10B599
S11301D0FFF7BCFF10BD10B5FFF7B8FF10BD10B599
S11301E0FFF7B4FF10BD10B5FFF7B0FF10BD10B599
S11301F0FFF7ACFF10BD10B5FFF7A8FF10BD10B599
S1130200FFF7A4FF10BD10B5FFF7A0FF10BD10B598
S1130210FFF79CFF10BD10B5FFF798FF10BD10B598
S1130220FFF794FF10BD10B5FFF790FF10BD10B598
S1130230FFF78CFF10BD10B5FFF788FF10BD10B598
S1130240FFF784FF10BD10B5FFF780FF10BDFFFF5F
S1130250FFFFFFFFFFFFFFFFFFFFFFFFFFFFFFFFAA
S1130260FFFFFFFFFFFFFFFFFFFFFFFFFFFFFFFF9A
S1130270FFFFFFFFFFFFFFFFFFFFFFFFFFFFFFFF8A
S1130280FFFFFFFFFFFFFFFFFFFFFFFFFFFFFFFF7A
S1130290FFFFFFFFFFFFFFFFFFFFFFFFFFFFFFFF6A
S11302A0FFFFFFFFFFFFFFFFFFFFFFFFFFFFFFFF5A
S11302B0FFFFFFFFFFFFFFFFFFFFFFFFFFFFFFFF4A
S11302C0FFFFFFFFFFFFFFFFFFFFFFFFFFFFFFFF3A
S11302D0FFFFFFFFFFFFFFFFFFFFFFFFFFFFFFFF2A
S11302E0FFFFFFFFFFFFFFFFFFFFFFFFFFFFFFFF1A
S11302F0FFFFFFFFFFFFFFFFFFFFFFFFFFFFFFFF0A
S1130300FFFFFFFFFFFFFFFFFFFFFFFFFFFFFFFFF9
S1130310FFFFFFFFFFFFFFFFFFFFFFFFFFFFFFFFE9
S1130320FFFFFFFFFFFFFFFFFFFFFFFFFFFFFFFFD9
S1130330FFFFFFFFFFFFFFFFFFFFFFFFFFFFFFFFC9
S1130340FFFFFFFFFFFFFFFFFFFFFFFFFFFFFFFFB9
S1130350FFFFFFFFFFFFFFFFFFFFFFFFFFFFFFFFA9
S1130360FFFFFFFFFFFFFFFFFFFFFFFFFFFFFFFF99
S1130370FFFFFFFFFFFFFFFFFFFFFFFFFFFFFFFF89
S1130380FFFFFFFFFFFFFFFFFFFFFFFFFFFFFFFF79
S1130390FFFFFFFFFFFFFFFFFFFFFFFFFFFFFFFF69
S11303A0FFFFFFFFFFFFFFFFFFFFFFFFFFFFFFFF59
S11303B0FFFFFFFFFFFFFFFFFFFFFFFFFFFFFFFF49
S11303C0FFFFFFFFFFFFFFFFFFFFFFFFFFFFFFFF39
S11303D0FFFFFFFFFFFFFFFFFFFFFFFFFFFFFFFF29
S11303E0FFFFFFFFFFFFFFFFFFFFFFFFFFFFFFFF19
S11303F0FFFFFFFFFFFFFFFFFFFFFFFFFFFFFFFF09
S1130400FFFFFFFFFFFFFFFFFFFFFFFFFEFFFFFFF9
S113041080B582B000AF00237B6003E0C0467B68F8
S113042001337B607B68044A9342F7D9C046C046D7
S1130430BD4602B080BDC046BFC62D0080B500AF2A
S1130440194A94235B00D35817498022D2051A43D2
S113045094235B00CA50154B1A69144B8021490040
S11304600A431A61114B5A69104B802149000A430F
S11304705A610F4B5A690E4B10210A435A610C4BB7
S11304805A690B4B20210A435A61094B1A68084BDD
S113049010218A431A60064B1A68054B20210A432F
S11304A01A60C046BD4680BD0050064000A004400E
S11304B0400000F880B500AFFFF7C0FF0E4B1A688C
S11304C00D4B10218A431A600B4B1A680A4B2021EA
S11304D00A431A60FFF79CFF074B1A68064B10216A
S11304E00A431A60044B1A68034B20218A431A609A
S11304F0FFF78EFFC046E1E7400000F880B500AF8B
S1130500104B1A6880239B01134003D00D4B0E4AF5
S11305105A6005E00B4B0D4A5A600A4B0C4A5A606C
S1130520084B0C4A9A60074B1B68A02293431A009D
S1130530044B20210A431A6000F06AFAC046BD4603
S113054080BDC0460020054020C528D920C5000034
S113055028D90000FFFF000070B5184C184922008C
S1130560002000F05DF8802380225B000021200041
S1130570D20000F02FF8134C134D22002900012063
S113058000F04EF8802380225B0000212000D2007E
S113059000F020F80D4B1B68022B0DDD0C4C2900DC
S11305A02200022000F03CF8802380220021200059
S11305B05B00D20000F00EF870BDC04684F8FF1F47
S11305C0C40A0000C0F8FF1FC60A0000C00A0000E9
S11305D0FCF8FF1FF0B5C56804000120AE070CD07D
S11305E080208000824213D08020C000824205D047
S11305F08020400082420BD0FF38F0BD210001234F
S113060024311543002021612160E361E560F4E7B2
S1130610024F5E1E0120BE42F3D9EEE7FEFFFF004B
S1130620F7B50D0001901000140000F033F82B789A
S1130630722B1CD0772B1DD0612B26D1144A593B29
S11306400220691C032784460426012508782B28E8
S113065013D0622816D0E260019A62611B0704D5A8
S113066002220021200000F063F82000FEBD0023D8
S11306700122E5E704230222E2E760463A4303430A
S11306800131E3E732432B43FAE70024EDE7C046A8
S113069002800000F0B5C56804004769066989B0A6
S11306A0AB0720D02B0716D400F022F8380000F056
S11306B0F2F92B0502D5300000F0C2F90B4BAD0D59
S11306C0AD059D4207D120226846216A00F0F2F967
S11306D0684600F0A8F93C220021200000F0ACF9A3
S11306E0002009B0F0BD01204042FAE7000080ADCF
S11306F0F8B5002812D000F0E5F805002800F8BD90
S113070038006043084BC01800F0DCF8002801D022
S113071001256D420134A642F2DCEFE7034B0400ED
S113072005003C271E68F6E784F8FF1FC00A000096
S1130730F7B54369C6680193364B04000D00009277
S11307401E420BD0019800F0ACF9071E06D1009BA5
S1130750012B06D0022B2DD0002B06D00227380007
S1130760FEBD200000F05AF82D18002DF6DBB3046E
S113077004D52368E26A9A4200D2E362A369AB42D9
S11307800EDCE16A22688A4200D20A002169D0188C
S11307900091401AA84203DB206B1918A94228DCF7
S11307A020231E430023A562A36063601A4B1E40EE
S11307B0E660D4E7019800F071F9E268002804DAF1
S11307C0802313430127E360C9E7E16A2368994260
S11307D000D90B00A1695B1821695B1A920603D545
S11307E0A26A934200DA1300834200DA0300ED1890
S11307F0BBE7EB1AB50701D5181AA060F00703D5BB
S11308000099521A9A1A6260009AD1182023216022
S11308109E43CBE703001000BFCFF7FFC16802007F
S11308208B0705D1212201200E4B40421A607047EC
S113083020230B4009030AD5002B02D0806A01381B
S1130840F5E793690068C0181369C01AF7E7002B2D
S113085001D0806AEBE70368816900695B18181AA4
S1130860E5E7C04680F8FF1F0300032110B51A0016
S11308700B4219D1114C136811495918994321425B
S113088019D0DCB2511C002C0BD0FF242402911C83
S1130890234206D0FF2109040B40591E8B41D31873
S11308A0D91C0130081A05E001335C1E2478002CA1
S11308B0DDD1101A10BD0432DDE7C046808080808F
S11308C0FFFEFEFEC36870B503221E00040016403E
S11308D0134211D09B0611D5856A00F079F8E368BC
S11308E0094A20001340E36000F010F800220600DB
S11308F029002000FFF71CFF300070BD83690568E4
S1130900ED180369ED1AEAE7FFCFFFFF70B50400A5
S1130910134AE36805691A400168C06AE2608222EA
S11309201A40022A02D00120404270BDDB030CD5DC
S1130930814200D201008D4209D10023094AA360FB
S1130940E368E56213402560E3600020EDE72200E0
S11309502800491B00F008F80028EED0E3E7C04661
S1130960FFFFF7FFFFFFFEFFF7B5D5680F00140088
S113097056690190EB0205D5102330001D4300F0A9
S11309808DF8A061104B1D420FD03000A16900F01A
S11309908EF8002806DA80230120E26840421343DF
S11309A0E3600FE0094B1D40E5603A003000019917
S11309B000F083F84300A2695B08FB1AD318A36113
S11309C00028E8D1FEBDC04610000200EFFFFDFF85
S11309D02022C36810B59343C3608269836A04000C
S11309E09A420CD0FFF792FFE268074B1A4010239B
S11309F01343E360A36AA3612369E3622360E368AA
S1130A00024A1340E36010BDEFCFFFFFBFBFFFFFFB
S1130A1080B500AFC046BD4680BD10B5FFF79CFD54
S1130A20FFF748FD10BD10B50400FFF71DFF0100DE
S1130A30200000F039F810BD10B500F017F810BD13
S1130A4010B5002811D080210C3849050160826856
S1130A50002A0AD013688B4207D1436854680333D1
S1130A601B19436093688360F1E710BD8446043A20
S1130A7009D3830707D109060B0A19430B0C194341
S1130A80043A02C0FCD2043203D001700130013AAE
S1130A90FBD160467047012040427047012040422C
S1130AA070470120404270470120404270470120B6
S1130AB04042704701204042704710007047FFFFDA
S10B0AC003000000720077003E
S90300D527
