S01200004C45445F546F67676C652E737265637C
S113400000700020154500007D4500007D4500003E
S11340107D4500007D4500007D4500000000000056
S11340200000000000000000000000007D450000CA
S11340307D450000000000007D4500004948000067
S11340407D4500007D4500007D4500007D45000064
S11340507D4500007D4500007D4500007D45000054
S11340607D4500007D4500007D4500007D45000044
S11340707D4500007D4500007D4500007D45000034
S11343F07D4500007D4500007D450000FFFFFFFF77
S1134400FFFFFFFFFFFFFFFFFFFFFFFFFE7FFFFF39
S11344100348044B834202D0034B03B1184770474F
S11344202088FF1F2088FF1F000000000548064960
S11344300B1AD90F01EBA301491002D0034B03B1AE
S1134440184770472088FF1F2088FF1F00000000C6
S113445010B5064C237843B9FFF7DAFF044B13B1C8
S11344600448AFF300800123237010BD0000002036
S1134470000000008C4B000008B5044B1BB104493C
S11344800448AFF30080BDE80840CFE70000000017
S1134490040000208C4B0000A3F5803A704700BF55
S11344A0174B002B08BF134B9D46FFF7F5FF002168
S11344B08B460F461348144A121A00F0B1FA0E4BF9
S11344C0002B00D098470D4B002B00D098470020BC
S11344D0002104000D000D48002802D00C4800F013
S11344E017FB00F079FA2000290000F0DFF900F052
S11344F063FA00BF00000800000000000000000094
S1134500007000200000002024000020114B000057
S1134510E94A000072B64FF000014FF000024FF07C
S113452000034FF000044FF000054FF000064FF079
S11345300007B846B946BA46BB46BC460A490B4AC8
S1134540521A013A05DD0020042308601944043A94
S1134550FBDA07488546074880470748804762B624
S1134560FFF79EFFFEE700000080FF1F00700020A1
S113457000700020A946000081450000FFF7FEBF3F
S113458080B48FB000AF394B3B63394B3B62394B3E
S11345907B61394BFB62394BFB61394B3B61394BD6
S11345A0BB62394BFB60394B7B62394BBB61394B86
S11345B0BB6009E03B6A1A783B6B1A703B6B0133B2
S11345C03B633B6A01333B627A693B6A9A42F1D1AD
S11345D009E0FB691A78FB6A1A70FB6A0133FB6213
S11345E0FB690133FB613A69FB699A42F1D105E049
S11345F0BB6A00221A70BB6A0133BB62FA68BB6AE9
S11346009A42F5D109E0BB691A787B6A1A70BB69D2
S11346100133BB617B6A01337B62BA68BB699A422E
S1134620F1D10023FB711C4A1C4B9A4216D0002383
S11346307B630AE0194A7B6B52F8232016497B6B93
S113464041F823207B6B01337B63154B9B087A6B0A
S11346509A42EFD3134B104A1A6002E0114B0F4AEF
S11346601A6000BF3C37BD4680BC70470084FF1F02
S1134670B84B0000D84F00002088FF1FD84F00001F
S1134680D84F00000000002024000020000000207B
S1134690D84F0000D84F00000080FF1F00400000EA
S11346A00004000008ED00E080B400AF084B094AA4
S11346B05A60074B5B68064B42F220121A60044BA7
S11346C04FF6FF729A6000BFBD4680BC704700BFC2
S11346D00020054020C528D980B487B000AF00234E
S11346E07B610123FB74344B1B691B0C03F00F0328
S11346F00133FB60304B1B691B0E03F00F03013BBE
S1134700052B46D801A252F823F000BF254700002C
S11347102B470000434700009347000093470000E5
S11347205B470000254B7B6137E0234BD3F808320D
S113473003F001033B603B68002B2DD01F4B7B61D2
S11347402AE01D4BD3F8083303F003033B601C4AF3
S11347503B6852F823307B611FE0184B7B61164B9A
S1134760D3F808361B0A03F007030133BB60124B6E
S1134770D3F808361B0C03F01F0310337B607B69EE
S11347807A6803FB02F2BB685B00B2FBF3F37B6164
S113479003E00023FB7400E000BFFB7C002B05D08A
S11347A07A69FB68B2FBF3F3064A136000BF1C3757
S11347B0BD4680BC704700BF0040064000127A002E
S11347C0844B00000084FF1F80B582B000AFFFF768
S11347D083FF0F4B1B680F4AA2FB03239B097B60DB
S11347E07B68013BB3F1807F01D301230CE07B683C
S11347F0013B094A23F07F435360074B00229A6030
S1134800054B07221A60002318460837BD4680BDB1
S11348100084FF1FD34D621010E000E080B400AFAD
S1134820074B084A5A60064B4FF6FF729A60044BD6
S11348304FF404521A6000BFBD4680BC704700BFED
S11348400020054020C528D980B400AF134B1B6855
S11348500133124A1360124B1B78DBB20133DAB214
S11348600F4B1A700E4B1B78DBB2092B02D90C4B81
S113487000221A700B4B1B78DAB2094B1B78DBB29F
S11348809A4203D9084B01229A6002E0064B0122A6
S11348905A6000BFBD4680BC704700BF1C000020AA
S11348A02000002021000020C0F00F4080B586B019
S11348B000AF384B4FF480421A6000237B61002321
S11348C03B610123FB73FFF7A9FF334B4FF0804299
S11348D0C3F82C21304B4FF08042C3F830212F4BCA
S11348E05B692E4A23F4805353612D4B4FF4887235
S11348F01A632C4B5B692B4A43F0010353612A4B27
S11349004FF480721A60274B01225A60FFF75CFF54
S11349100346002B00D0FEE7244B1B68BB60BA683B
S11349207B69D31A092BF7D9BB687B611B4B1B69C5
S113493003F48053002B01D0012300E00023FB711A
S1134940FA79FB7B9A4204D0BB683B61FB79FB7329
S1134950E2E7BA683B69D31A312BDDD9144B1B78D3
S1134960FA799A42D8D0124AFB791370FB79002B5A
S1134970D2D1104B1B78DBB20133DAB20D4B1A7073
S11349800C4B1B78DBB20A2BC6D90A4B00221A70D7
S1134990C2E700BF08ED00E00050064080F00F4081
S11349A000B00440C0F00F4000C004401C000020D0
S11349B00484FF1F2100002008B50021044600F0F4
S11349C041F8044B1868C36B03B19847204600F0C4
S11349D0D7F800BF884B000070B50D4D0D4C641B1B
S11349E0A4100026A64209D10B4D0C4C00F0CEF8C1
S11349F0641BA4100026A64205D170BD55F8043BE3
S1134A0098470136EEE755F8043B98470136F2E73C
S1134A10AC4B0000AC4B0000AC4B0000B44B0000AE
S1134A2002440346934200D1704703F8011BF9E79F
S1134A30024B13B1024800F06BB87047000000004D
S1134A40E94A00002DE9F74F264B1B6801930746FE
S1134A500E464FF0000A019BD3F8485155B16C68DB
S1134A6004F1FF38013405EB84044FF00109B8F177
S1134A70000F02DA03B0BDE8F08F3EB1D4F8002194
S1134A80B24203D008F1FF38043CF0E769682268B9
S1134A90013941450CBFC5F80480C4F800A0002AC0
S1134AA0F0D0D5F88811D5F804B009FA08FC1CEA4E
S1134AB0010F09D190476968019B5945D3F84821F2
S1134AC0C9D19542DED0C6E7D5F88C01D4F8801060
S1134AD01CEA000F02D138469047ECE7084690479D
S1134AE0E9E700BF884B000038B5074D074C641B4D
S1134AF0A4101CB9BDE8384000F04EB8013C55F88C
S1134B0024309847F5E700BFB44B0000B84B0000D1
S1134B10002301461A46184600F000B8F0B5174CB9
S1134B202568D5F848411CB905F5A674C5F848416F
S1134B3065681F2D1EDCB0B104EB85070228C7F899
S1134B408820D4F888614FF0010202FA05F246EA9F
S1134B500206C4F88861C7F8083102BFD4F88C3162
S1134B601343C4F88C316B1C0235636044F8251080
S1134B700020F0BD4FF0FF30FBE700BF884B000082
S1134B80FEE70000006CDC020884FF1FF8B500BFDC
S1134B90F8BC08BC9E467047F8B500BFF8BC08BC1A
S1074BA09E46704772
S10B4BA4F4F8FF7F010000009A
S10B4BAC314A000079440000C5
S1074BB45144000064
S1134BB8006CDC020100000000000000F486FF1F06
S1134BC85887FF1FBC87FF1F00000000000000007B
S1134BD800000000000000000000000000000000C9
S1134BE800000000000000000000000000000000B9
S1134BF800000000000000000000000000000000A9
S1134C080000000000000000000000000000000098
S1134C180000000000000000000000000000000088
S1134C280000000000000000000000000000000078
S1134C380000000000000000000000000000000068
S1134C480000000000000000000000000000000058
S1134C580000000000000000000000000000000048
S1134C6801000000000000000E33CDAB34126DE6E5
S1134C78ECDE05000B00000000000000000000004E
S1134C880000000000000000000000000000000018
S1134C980000000000000000000000000000000008
S1134CA800000000000000000000000000000000F8
S1134CB800000000000000000000000000000000E8
S9034515A2
